:060000000A128A11122809
:10000800FE00030E83120313BE000408BF000A0893
:10001800C0007F08C1000A128A11902B0A128A11A7
:10002800152883136B30FD000730FE00D030FF0029
:10003800573084000A128A11E8270A128A114230BE
:10004800840057300A128A11F7270A128A1183018D
:100058000A128A11422F8312031323088039A80039
:100068002808AD002308A8002807A9002908B3001C
:10007800A21F3F2840284128331433080319452874
:1000880046285528330A031D4A284B285328003090
:10009800A3000030A2000030A1000030A000A21789
:1000A8005D280030A3000030A2000030A10000301D
:1000B800A00027088039A8002808AD062708A8004E
:1000C8002807A9002908B200A61F6B286C286D28EC
:1000D800321432080319712872288128320A031D44
:1000E800762877287F280030A7000030A600003047
:1000F800A5000030A400A61789280030A70000300A
:10010800A6000030A5000030A400320803198D288D
:100118008E2893283308031D922893289C280030A2
:10012800A3000030A2000030A1000030A0008F2BF7
:100138002008A8002808F00026080A128A11842737
:100148000A128A11710883120313B9007008B800E3
:100158003808A800A901AA01AB012B08B1002A0898
:10016800B0002908AF002808AE003908A800A90186
:10017800AA01AB012B08B7002A08B6002908B50068
:100188002808B4002108A8002808F00025080A1249
:100198008A1184270A128A11710883120313B9007D
:1001A8007008B8003808A800A901AA01AB012808FE
:1001B800AE07290803110318013E0319E428AF0705
:1001C8002A0803110318013E0319EB28B0072B086E
:1001D80003110318013E0319F228B1073908A800D2
:1001E800A901AA01AB012808B407290803110318BB
:1001F800013E03190029B5072A0803110318013E17
:1002080003190729B6072B0803110318013E031920
:100218000E29B7072208A8002808F00024080A12A7
:100228008A1184270A128A11710883120313B900EC
:100238007008B8003808A800A901AA01AB0128086D
:10024800AE07290803110318013E03192C29AF072B
:100258002A0803110318013E03193329B0072B0894
:1002680003110318013E03193A29B1073908A800F8
:10027800A901AA01AB012808B4072908031103182A
:10028800013E03194829B5072A0803110318013E3E
:1002980003194F29B6072B0803110318013E031948
:1002A8005629B7070830A8000310AE0DAF0DB00DE2
:1002B800B10DA80B58292108A8002808F000240827
:1002C8000A128A1184270A128A11710883120313E9
:1002D800B9007008B8003808A8003908A900AA01B0
:1002E800AB012808AE07290803110318013E0319BA
:1002F8007E29AF072A0803110318013E031985292F
:10030800B0072B0803110318013E03198C29B10704
:100318002008A8002808F00025080A128A11842756
:100328000A128A11710883120313B9007008B80001
:100338003808A8003908A900AA01AB012808AE07A7
:10034800290803110318013E0319AB29AF072A082E
:1003580003110318013E0319B229B0072B08031132
:100368000318013E0319B929B1070830A800031082
:10037800AE0DAF0DB00DB10DA80BBB292008A8001C
:100388002808F00024080A128A1184270A128A1100
:10039800710883120313B9007008B8003808A80060
:1003A8003908A900AA01AB012808AE0729080311DA
:1003B8000318013E0319E129AF072A08031103189E
:1003C800013E0319E829B0072B0803110318013E61
:1003D8000319EF29B1072108A8002808F00026080A
:1003E8000A128A1184270A128A11710883120313C8
:1003F800B9007008B8003808A8003908A900AA018F
:10040800AB012808B407290803110318013E031992
:100418000E2AB5072A0803110318013E0319152AE5
:10042800B6072B0803110318013E03191C2AB70746
:100438002208A8002808F00025080A128A11842733
:100448000A128A11710883120313B9007008B800E0
:100458003808A8003908A900AA01AB012808B40780
:10046800290803110318013E03193B2AB5072A0876
:1004780003110318013E0319422AB6072B0803117A
:100488000318013E0319492AB7072208A8002808BB
:10049800F00026080A128A1184270A128A117108A4
:1004A80083120313B9007008B8003808A800390887
:1004B800A900AA01AB0108300310A80DA90DAA0DC7
:1004C800AB0DFF3E031D602A2808B4072908031155
:1004D8000318013E0319712AB5072A0803110318E6
:1004E800013E0319782AB6072B0803110318013EA9
:1004F80003197F2AB7072E08A8002F08A90030087B
:10050800AA003108AB0018300310AB0CAA0CA90CD8
:10051800A80CFF3E031D882A2808B40729080311E0
:100528000318013E0319992AB5072A08031103186D
:10053800013E0319A02AB6072B0803110318013E30
:100548000319A72AB7070830A8000310AE0DAF0D8E
:10055800B00DB10DA80BA92A33083207A800A901CC
:10056800A90D2808823EB80029080318013EFF3E5D
:10057800B900DB2A0130A8000310B40DB50DB60D83
:10058800B70DA80BC02AB11FCA2ACB2ACC2A34140B
:100598000130A8000310AE0DAF0DB00DB10DA80BC2
:1005A800CE2AFF30B8070318B90AFF30B907B61FBB
:1005B800DE2ADF2ABE2AB201B11FE32AE42A002B71
:1005C800FF302E05A800FF302F05A900FF303005A9
:1005D800AA007F303105AB002B082A04290428041F
:1005E8000319F72AF82AFB2AB201B20A002B341C95
:1005F800FE2AFF2A002BF82A32080319042B052BA0
:10060800362B0130B407003003180130B50700302D
:1006180003180130B607003003180130B707371C3C
:10062800162B172B362B3408A8003508A9003608D6
:10063800AA003708AB000130AC002B0DAB0CAA0C9C
:10064800A90CA80CAC0B212B2B08B7002A08B60064
:100658002908B5002808B4000130B8070318B90AFA
:100668000030B9073908803AFF0080307F02031D47
:100678003F2BFF303802031C422B432B4E2B7F307D
:1006880083120313B7008030B6000030B500003085
:10069800B400832B831203133908803AFF0080309B
:1006A8007F02031D592B0130380203185C2B5D2B88
:1006B800692B003083120313B7000030B6000030F6
:1006C800B5000030B400AD01832B83120313380842
:1006D800A8002808B300FF30B405FF30B5057F3007
:1006E800B6050030B705331C7A2B7B2B7C2BB6174D
:1006F8003308A8000310280CA9002908B7002D0802
:10070800A8002808B7043708A3003608A20035084F
:10071800A1003408A00008000B1D932B942BBD2BBF
:10072800FC3081000B110610861006115408031DB9
:100738009E2B9F2BA52B061450088800D401D40AA1
:10074800BD2B5403031DA92BAA2BB22B86144F08CB
:1007580088000230BA003A08D400BD2B0230540693
:10076800031DB72BB82BBD2B06154E088800D401E6
:10077800BD2B0C1FC02BC12B952C1F0CBA003A0C9B
:100788000F39003A031DC92BCA2BCD2B1E08870031
:10079800942C1F0CBA003A0C0F39013A031DD52BC3
:1007A800D62B942CD60103305602031CDC2BDD2BF0
:1007B800DE2B782C3F30A300FA30A200E130A100F4
:1007C8004830A0001E08BA00BB01BC01BD013D08AD
:1007D800F3003C08F2003B08F1003A08F000013051
:1007E8000A128A11A0240A128A11730883120313A9
:1007F800A7007208A6007108A5007008A4000A12D4
:100808008A112F200A128A11831203132308CB009E
:100818002208CA002108C9002008C8004B08F300B4
:100828004A08F2004908F1004808F0000A128A1143
:10083800F6250A128A11710883120313CD00700875
:10084800CC005608031D292C2A2C412C4D08A50044
:100858004C08A4005608BA00BB013A08A6003B0899
:10086800A7000A128A115A250A128A118312031341
:100878002408BC003C08D300732C5603031D452CE8
:10088800462C5D2C4D08A5004C08A4005608BA005B
:10089800BB013A08A6003B08A7000A128A115A258C
:1008A8000A128A11831203132408BC003C08D200E0
:1008B800732C4D08A5004C08A4005608BA00BB01CB
:1008C8003A08A6003B08A7000A128A115A250A12FC
:1008D8008A11831203132408BC003C08D10001309C
:1008E800BA003A08D607D72B5108BA003A07573E3C
:1008F800840083130008BB003B08D0005208BA00EC
:100908003A07573E84000008BB003B08CF00530855
:10091800BA003A07573E84000008BB003B08CE00E7
:100928000C134108FF0040088A003F0884003E0E6F
:100938008300FE0E7E0E0900F80078080319A52C26
:10094800A62CBA2CF31FA92CAA2CBA2C7009FA00D1
:100958007109FB007209FC007309FD00FA0A03190A
:10096800FB0A0319FC0A0319FD0AC22C7308FD00CF
:100978007208FC007108FB007008FA007308720422
:1009880071047004031DC92CCA2CD32C0030F30049
:100998000030F2000030F1000030F000592D9630A0
:1009A800F4007408F900E52C0130F4007408F90724
:1009B80001300310FD0CFC0CFB0CFA0CFF3E031D70
:1009C800DD2CFE307D05031DEA2CEB2CD82C072DE1
:1009D8000130F4007408F9070130FA0700300318F1
:1009E8000130FB07003003180130FC070030031802
:1009F8000130FD0701300310FD0CFC0CFB0CFA0C58
:100A0800FF3E031DFF2CFF307D05031D0C2D0D2D12
:100A1800EC2C192D0130F9020130F4000310FA0D05
:100A2800FB0DFC0DFD0DF40B122DFC1B1C2D1D2DBB
:100A3800232D023079020318222D232D0E2D79182B
:100A4800262D272D2F2DFF30FA05FF30FB057F308F
:100A5800FC05FF30FD050310F90C7908F400F501D9
:100A6800F601F70118300310F40DF50DF60DF70D2A
:100A7800FF3E031D372D7408FA047508FB04760839
:100A8800FC047708FD04780803194B2D4C2D512DD3
:100A9800F31F4F2D502D512DFD177D08F3007C08B5
:100AA800F2007B08F1007A08F00008006430F600D4
:100AB8000030F700831203132508F9002408F80012
:100AC8000A128A11D9260A128A1177088312031387
:100AD800B9007608B8000A30F6000030F700390887
:100AE800F1003808F0009C30F200FF30F3000A12E1
:100AF8008A11AB270A128A1183120313240870077C
:100B0800F80025080318250A7107F9000A128A1146
:100B1800D9260A128A11770883120313B7007608B8
:100B2800B6003908F1003808F0009C30F200FF30B8
:100B3800F3000A128A11AB270A128A11700883126D
:100B48000313A8007108A9003708F1003608F0005F
:100B5800F630F200FF30F3000A128A11AB270A12AE
:100B68008A117008831203132807AA007108031852
:100B7800710A2907AB0024082A07AC0025080318C6
:100B8800250A2B07AD00303084004208831380000B
:100B9800840A43088000840A44088000840A4508BF
:100BA8008000840A46088000840A470880002D08CF
:100BB800B1002C08B0003708B3003608B200390875
:100BC800B5003808B4002608A8002807303E84007D
:100BD8000008AE00840A0008AF002F08A5002E0800
:100BE800A40008000310720D730DF4007408FA00D5
:100BF8007A08031D002E012E0A2E0030F300003063
:100C0800F2000030F1000030F0006F2E7008F400A0
:100C18007108F5007208F6007308F7001F3003101A
:100C2800F70CF60CF50CF40CFF3E031D132E74089C
:100C3800F8007808F900F217FF30F005FF30F105E9
:100C4800FF30F2050030F3059630FA02FA1F2D2E18
:100C58002E2E482E7A08803A973E0318342E352EC9
:100C6800362E012E01300310F30CF20CF10CF00CAF
:100C7800FF3E031D372E0130F4007408FA07031DE8
:100C8800462E472E362E5F2E20307A02031C4D2E1C
:100C98004E2E5A2E012E0130F4000310F00DF10DE6
:100CA800F20DF30DF40B512E0130FA027A08031DF0
:100CB8005E2E5F2E4F2E79080319632E642E6F2E39
:100CC800F009F109F209F309F00A0319F10A031905
:100CD800F20A0319F30A0800033083160317880081
:100CE80089010330831603138500831203138501DA
:100CF80083160313870183120313870183160313D3
:100D0800880106108610061186110F088F39603881
:100D18008F000F14831203131F083F3940389F00B8
:100D2800831603131F129F16C330831203139F05E4
:100D3800831603139F13831203131F140C30831697
:100D48000313A000A00BA62E0000831203131F0894
:100D5800C33904389F00831603139F1383120313A8
:100D68001F140C3083160313A000A00BB92E00002B
:100D7800831203130C13831603130C170B178B170B
:100D8800161496148312031386010B108B15831601
:100D9800031381128111011581140110FC30831293
:100DA800031381000B118B16080083120313A10192
:100DB800F71FDF2EE02EE72EF609F709F60A0319CA
:100DC800F70AA101A10AF91FEA2EEB2EF42EF80961
:100DD800F909F80A0319F90A0130FA007A08A10694
:100DE800A201A301760877040319FB2EFC2E332FEA
:100DF800A001A00A0A2F01300310F60DF70DFF3EDF
:100E0800031D002F0130FA007A08A007F71F0D2FE5
:100E18000E2FFF2E01300310A20DA30DFF3E031D60
:100E28000F2F77087902031D1B2F76087802031C01
:100E38001E2F1F2F262F7608F8027708031CF903A8
:100E4800F902221401300310F70CF60CFF3E031DC3
:100E5800272F0130A002031D322F332F0E2F210818
:100E68000319372F382F3D2FA209A309A20A031906
:100E7800A30A2308F7002208F600080083120313C8
:100E88008501860187010A128A1170260A128A11C1
:100E98008312031386159F18522F532F4C2F1F0CA4
:100EA80083160313A100210C0F39003A031D5D2F8F
:100EB8005E2F652F831203131F08C33904389F0060
:100EC800762F831203131F0C83160313A100210C22
:100ED8000F39013A031D712F722F762FC3308312F9
:100EE80003139F050C3083160313A100A10B7A2F5F
:100EF8000000831203139F144C2F0A128A11122820
:100F0800F800F401F5017008F200F3017208F60028
:100F18007308F700781C912F922F982F7608F40702
:100F28000318F50A7708F50701300310F60DF70DD9
:100F3800FF3E031D992F0310F80C7808031DA52FF9
:100F4800A62F8E2F7508F1007408F0000800F40130
:100F5800F501701CB02FB12FB72F7208F4070318D2
:100F6800F50A7308F50701300310F20DF30DFF3E83
:100F7800031DB82F01300310F10CF00CFF3E031DC8
:100F8800BF2F70087104031DCA2FCB2FAD2F750812
:100F9800F1007408F0000800BF34003486340034CF
:100FA800DB340034CF340034E6340034ED3400341C
:100FB800FD34003487340034FF340034EF34003417
:100FC8007E088A007F0882000A128A11E4270A1222
:100FD8008A118000840A04087D0603190034FF0A78
:100FE8000319FE0AE82F64008001840A0406031925
:060FF80000340406F82F8E
:08400000FF3FFF3FFF3FFF3FC0
:04400E00D420FF3F7C
:00000001FF
